:100000000C9463080C948B080C948B080C948B084C
:100010000C948B080C948B080C948B080C948B0814
:100020000C948B080C948B080C948B080C948B0804
:100030000C948B080C948B080C948B080C948B08F4
:100040000C948B080C948B080C948B080C948B08E4
:100050000C948B080C948B080C948B080C948B08D4
:100060000C948B080C948B080C948B080C948B08C4
:100070000C948B080C948B080C948B08000B0921B2
:100080005F3B00010004000B0010001A0021002259
:1000900000250028002D003400360039003A003FCA
:1000A00000440049004E00530059005E00630068A0
:1000B000006D007200730075007B00820088008C68
:1000C0000094009A00A000A700AE00B300B800BFE3
:1000D00000C500C800CC00D200D700DE00E400EB71
:1000E00000F000F700FD0103010A01100116011FD5
:1000F0000125012C01320135013A013D0144014B3A
:10010000014D01520157015C01610166016A016FF5
:10011000017401750178017D017E0187018C0191D7
:100120000196019B019F01A301A701AC01B101B898
:1001300001BD01C201C601CB01CC01D101D801D85A
:10014000500400004C2000020000000000000000ED
:10015000000000000000000000000000000000009F
:100160000000000000003C380010200080C109841D
:100170000000000000000000007C00D14462185222
:10018000A80002E239C17CDF73800000E3E33C3D5C
:10019000F3FF3D0F78618F139E39E3DFE186230C77
:1001A0001FE408800820008101008400000000088E
:1001B000000000009200D14F9224527080051E462C
:1001C0002341018C400000141322430A10430A18F3
:1001D000A18F14514514222186230A206209400070
:1001E000200081010084000000000800000000924F
:1001F0000087F4942421A8800512042542028C680B
:10020000603019D4A2810610810A192156983183D1
:1002100014022185549140A20A2003BCE7BBDFEB06
:100220008FDDE779F6FF18C98C7C920082946419FF
:10023000212080091208C97BC274699FCC2A54BE50
:100240008107FE81FA1A21569831831302214954FD
:100250006081210C10006318C52319962318C63934
:100260000918C952849231828E09A52107F3891297
:10027000103106248BC600034A54A18106108F0A50
:100280001E2126583E83E0C2214954608221080085
:1002900003E308FD2319A62318C631891555228BBF
:1002A00011C98FC50A622100801112203F8624885F
:1002B000419FCC4A5FE1810610830A1921265830FC
:1002C0008320222149549084208800046308C1239C
:1002D00019E62318C6306915552290924605051275
:1002E0006321008451124221462888A8603009A861
:1002F00061430A10430A18A10634504514222130E4
:10030000890888208800046318C52319962318C615
:100310003029122251209200851E119C9200846087
:10032000EFFDC139C87328000044087E3DF3F03D5D
:100330000FE87F063390390BC21E3089088FE048E2
:100340000003FCE7B91F198E231779F1C6F2228941
:100350003C92000004000012000420000000000095
:100360000008000003C000000000000000000000C2
:10037000000800000000000000204800000000000D
:100380000201000000402000000001009200000473
:1003900000000C0008000000000000001000000039
:1003A0000000000000000000000000000600000047
:1003B0000000000038380FE00000001C06000000BC
:1003C000402000000002007C00000000000000004F
:1003D000000F30404788909090FF0000FF00000021
:1003E00000FF0000E010080808FF000007081010D8
:1003F00010F00C02E21109090990909090909090F1
:1004000090000000181800000008080808080808F4
:100410000810101010101010100909090909090915
:1004200009000000000304080800000000FF0000AD
:100430000000000000C02010103C7EFFFFFFFF7E88
:100440003C0808040300000000000000FF0000005A
:1004500000101020C000000000000000E01008089C
:100460000800000007081010109090908847403056
:100470000F00000000FF0000FF1010100807000030
:100480000008080810E000000009090911E2020C48
:10049000F0000000000F08080900000000FF010143
:1004A000FF0000000000FFFF0000000000FF808050
:1004B000FF00000000F01010900908080F00000075
:1004C00000901010F00000000090909088878080CD
:1004D0008009090911E101010180808087889090DD
:1004E00090010101E111090909000000000000006C
:1004F000000000000000606000363612240000009A
:10050000003636122400000000FEFFC3C3C3C3C37D
:10051000C31F1F003F3F303F3F8FCFCCCCCCCCCC54
:10052000CCF8FCCCCCCCCCCCCC7FFFC0C0C0C0FFC6
:100530007F1F3F303030303F1F80C0C0C0C0C0C0C0
:100540008000000000000000001C26636363321C72
:10055000000C1C0C0C0C0C3F003E63071E3C707F13
:10056000003F060C1E03633E000E1E36667F060625
:10057000007E607E0303633E001E30607E63633E48
:10058000007F63060C181818003C62723C4F433E13
:10059000003E63633F03063C000102040810204054
:1005A000000000001C00000000FF0101010101012A
:1005B0000101010101010101FFFF80808080808035
:1005C0008080808080808080FF000000000000002C
:1005D000001C3663637F6363007E63637E63637EB8
:1005E000001E33606060331E007C66636363667C5C
:1005F000003F30303E30303F007F60607E606060A2
:10060000001F30606763331F006363637F6363634E
:10061000003F0C0C0C0C0C3F000303030303633E70
:100620000063666C787C6E67003030303030303F6D
:100630000063777F7F6B63630063737B7F6F6763A8
:10064000003E63636363633E007E6363637E60605A
:10065000003E6363636F663D007E6363677C6E6725
:10066000003C66603E03633E003F0C0C0C0C0C0C1F
:10067000006363636363633E00636363773E1C08E8
:100680000063636B7F7F77630063773E1C3E776315
:10069000003333331E0C0C0C007F070E1C38707FA8
:1006A000000E0E1C18100020003C4299A1A1994296
:1006B0003C0000F388F08080000000E78887808F8E
:1006C0000000008000008000000000003155500054
:1006D0000000484947480053434F5245000000007E
:1006E00000000000000000000000303000000000AA
:1006F00000000000000000000000000000000000FA
:1007000000000000000000000000000000000000E9
:1007100000000000000000000000000000010202D4
:1007200002020202020202020202030402020202A6
:100730000202020202020202050607070707070774
:100740000707070707070809070707070707070736
:10075000070707070A06070B0C0C0D070B0C0C0C00
:100760000D070809070B0C0C0C0D070B0C0C0D07E3
:100770000A060E080000090708000000090708091A
:1007800007080000000907080000090E0A06070F05
:10079000101011070F10101011070F11070F101074
:1007A0001011070F101011070A06070707070707A0
:1007B00007070707070707070707070707070707C9
:1007C000070707070A06070B0C0C0D070B0D070B95
:1007D0000C0C0C0C0C0C0D070B0D070B0C0C0D0767
:1007E0000A06070F101011070809070F101012133F
:1007F000101011070809070F101011070A06070744
:100800000707070708090707070708090707070772
:1008100008090707070707070A14151515150D0717
:1008200008160C0C0D000809000B0C0C1709070B1F
:100830001515151518000000000006070813101004
:1008400011000F11000F10101209070A000000001C
:10085000000000000000060708090000000000007A
:10086000000000000809070A000000000000000066
:100870000000060708090019151A1B1B1C151D008E
:100880000809070A00000000000202020202110724
:100890000F11000A00000000000006000F11070FF2
:1008A0000202020202000000000000070000000A2D
:1008B000000000000000060000000700000000002B
:1008C0000015151515150D070B0D000A0000000089
:1008D000000006000B0D070B15151515150000007F
:1008E000000006070809001E0202020202021F00A1
:1008F0000809070A000000000000000000000607C9
:100900000809000052454144595B00000809070AE4
:100910000000000000000000000006070809000BAE
:100920000C0C0C0C0C0C0D000809070A0000000050
:1009300000010202020211070F11000F1010121322
:10094000101011000F11070F02020202050607071F
:100950000707070707070707070708090707070724
:1009600007070707070707070A06070B0C0C0D0701
:100970000B0C0C0C0D070809070B0C0C0C0D070BCE
:100980000C0C0D070A06070F101209070F101010A4
:1009900011070F11070F101010110708131011077E
:1009A0000A060E07070809070707070707070000D9
:1009B00007070707070707080907070E0A200C0D96
:1009C000070809070B0D070B0C0C0C0C0C0C0D0782
:1009D0000B0D070809070B0C21221011070F110737
:1009E0000809070F10101213101011070809070F3C
:1009F00011070F102306070707070707080907074E
:100A00000707080907070707080907070707070770
:100A10000A06070B0C0C0C0C17160C0C0D0708091A
:100A2000070B0C0C17160C0C0C0C0D070A06070F05
:100A3000101010101010101011070F11070F1010C8
:100A400010101010101011070A06070707070707F4
:100A50000707070707070707070707070707070726
:100A6000070707070A14151515151515151515157A
:100A70001515151515151515151515151515151526
:100A80001800000000A000A800AA00AA80AA802ADE
:100A90008000000000002A00AA02AA002A0002002A
:100AA00000AA80AA80AA00A800A000000000000000
:100AB000000002002A02AA00AA002A00000000008A
:100AC000000000000000500550510001000400101B
:100AD0000000000000000000000000000103F40F0F
:100AE000DFDF00DFC0FFC0BFC0EFC0FF00000000BD
:100AF000000FFC0EF30FB303F3000300000000002F
:100B000000000000000050050000555500405555FC
:100B10000150555505505555055069690554696989
:100B2000155455551554555515949696166469697E
:100B300019545555151415541404141410000000BC
:100B400000000000000050050000555500405555BC
:100B50000150555505505555055069690554696949
:100B6000155455551554555515949696166469693E
:100B700019545555155451451550400105000000B4
:100B8000000000000000A00A0000AAAA0080AAAA93
:100B900002A0BEEA0BA0FFFA0FA05FFA05A85FFA59
:100BA00025A8BEEA2BA8AAAA2AA8AAAA2AA8AAAA5D
:100BB0002AA8AAAA2A282AA828082828200000004B
:100BC000000000000000A00A0000AAAA0080AAAA53
:100BD00002A0BEEA0BA0FFFA0FA05FFA05A85FFA19
:100BE00025A8BEEA2BA8AAAA2AA8AAAA2AA8AAAA1D
:100BF0002AA8AAAA2AA8A28A2AA080020A0000007B
:100C0000000000000000A00A0000AAAA0080AAAA12
:100C100002A0AAAA0AA0AFFA0AE0BFFE0BE8BFFE34
:100C20002BE8B55E2BA8A55A2AA8AAAA2AA8AAAA80
:100C30002AA8AAAA2A282AA82808282820000000CA
:100C4000000000000000A00A0000AAAA0080AAAAD2
:100C500002A0AAAA0AA0AFFA0AE0BFFE0BE8BFFEF4
:100C60002BE8B55E2BA8A55A2AA8AAAA2AA8AAAA40
:100C70002AA8AAAA2AA8A28A2AA080020A000000FA
:100C8000000000000000A00A0000AAAA0080AAAA92
:100C900002E0ABBE0AF0AFFF0A50AFF50A58AFF55D
:100CA0002AE8ABBE2AA8AAAA2AA8AAAA2AA8AAAA57
:100CB0002AA8AAAA2A282AA828082828200000004A
:100CC000000000000000A00A0000AAAA0080AAAA52
:100CD00002E0ABBE0AF0AFFF0A50AFF50A58AFF51D
:100CE0002AE8ABBE2AA8AAAA2AA8AAAA2AA8AAAA17
:100CF0002AA8AAAA2AA8A28A2AA080020A0000007A
:100D0000000000000000A00A0000A55A00C0B55E67
:100D100003E0BFFE0BE0BFFE0BA0AFFA0AA8AAAA31
:100D20002AA8AAAA2AA8AAAA2AA8AAAA2AA8AAAA2B
:100D30002AA8AAAA2A282AA82808282820000000C9
:100D4000000000000000A00A0000A55A00C0B55E27
:100D500003E0BFFE0BE0BFFE0BA0AFFA0AA8AAAAF1
:100D60002AA8AAAA2AA8AAAA2AA8AAAA2AA8AAAAEB
:100D70002AA8AAAA2AA8A28A2AA080020A000000F9
:100D80000000000000000000000000000000000063
:100D900000FCC0030F0333CC300333CC30C030CC65
:100DA000303030CC300C30CC30FFC3030F000000AB
:100DB0000000000000000000000000000000000033
:100DC0000000000000000000000000000000000023
:100DD00000C0C0030FF030CC30CC30CC30C330CCAE
:100DE00030FF33CC30C030CC30C0C0030F00000027
:100DF00000000000000000000000000000000000F3
:100E000000000000000000000000000000000000E2
:100E100000FCC0030F0333CC300333CC30FC30CCA8
:100E2000300333CC300333CC30FCC0030F00000060
:100E300000000000000000000000000000000000B2
:100E400000000000000000000000000000000000A2
:100E500000C30F0F3C33C030C333C030C3F3CF30B7
:100E6000C333CC30C333CC30C3C3030F3C000000CA
:100E70000000000000000000000000000000000072
:100E8000000000000000A80A0080AA0A00A0AA0230
:100E900000A0AA0000A82A0000A80A0000A80200DA
:100EA00000A80A0000A82A0000A0AA0000A0AA0228
:100EB0000080AA0A0000A80A00000000000000004C
:100EC000000000000000A80A0080AAAA00A0AAAAA8
:100ED00002A0AAAA02A82AAA0AA80AA80AA802A0E6
:100EE0000AA800800A2800000A0000000000000094
:100EF00000000000000000000000000000000000F2
:100F0000000000000000A80A0080AAAA00A0AAAA67
:100F100002A0AAAA02A8AA2A00A8AA0000A8020061
:100F200000A8AA0000A8AA2A00A0AAAA02A0AAAA09
:100F30000280AAAA0000A80A000000000000000029
:100F4000000000000000A80A0080AAAA00A0AAAA27
:100F500002A0AAAA02A8AAAA0AA82AAA0AA82AAA91
:100F60000AA80AA80AA80AA80AA00AA802A002A019
:100F7000028002A00000000000000000000000004D
:100F8000000000000000A80A0080AAAA00A0AAAAE7
:100F900002A0AAAA02A8AAAA0AA8AAAA0AA8AAAA51
:100FA0000AA8AAAA0AA8AAAA0AA0AAAA02A0AAAA41
:100FB0000280AAAA0000A80A0000000000000000A9
:100FC000000000000000A02A0000AAAA0280AAAA2D
:100FD0000A80AAAA0A00A8AA2A0000AA2A00008059
:100FE0002A0000AA2A00A8AA2A80AAAA0A80AAAAD5
:100FF0000A00AAAA0200A02A0000000000000000C7
:10100000000000000000A02A0000A0AA020080AAA0
:101010000A0000AA0A0000A82A0000A02A000080F6
:101020002A0000A02A0000A82A0000AA0A0080AA1C
:101030000A00A0AA0200A02A000000000000000090
:1010400000000E0E1F03010C114F03020E11890345
:10105000031011CB01040E1A0003000B010F000B4B
:10106000030F000B050F000B070F000B0909000B06
:101070000F0F000B000F0009090900020F01000CFF
:101080000F01000C020700050F0900020F01000C00
:101090000F050001090B00050F0F000304010207F3
:1010A000140714051405000200190000231B230473
:1010B000000004FC00FC0405060504020002040410
:1010C00003010300311A11241FBECFEFD0E1DEBFB0
:1010D000CDBF11E0A0E0B1E0E8E0FBE302C0059085
:1010E0000D92AC38B107D9F713E0ACE8B1E001C01C
:1010F0001D92AD31B107E1F710E1C6ECD0E104C0BB
:101100002297FE010E949D1AC43CD107C9F70E9494
:101110002A1A0C94821D0C9400000E94750B0895ED
:101120008F929F92AF92BF92CF92DF92EF92FF92F7
:101130000F931F93CF93DF936C015B017A01E90159
:101140004801E80EF91EC60FD71F0E945B0CE81677
:10115000F90624F00E945B0CE82EF92E0E945E0C2A
:10116000C817D90724F00E945E0CC82FD92FD7FECC
:1011700002C0CC24DD24EC18FD081E141F04ACF5BD
:101180008501B7FE02C000E010E0C01BD10B1C16A9
:101190001D065CF5C601B801A7019E010E94290C3D
:1011A000C601B8010E94560CC4010E94610C67017F
:1011B000D694DC2CCC24D794C7948E0105C0C601EC
:1011C0000E94410D0058104001381105C4F7CE01AE
:1011D00001978078C81BD90BCE9DC001CF9D900D83
:1011E000DE9D900D11240E94410DDF91CF911F9142
:1011F0000F91FF90EF90DF90CF90BF90AF909F90B6
:101200008F9008950E94610C08950E94660C8FEFE4
:101210009FEF90938F0180938E0190938D01809327
:101220008C0108950F931F93CF93DF938C01EB01F3
:101230000E945B0C0817190778F50E945E0CC8170E
:10124000D90750F521C080918E0190918F01C81768
:10125000D90761F0C801BE010E94560C10938D01A0
:1012600000938C01C0938E01D0938F0181E090E0B8
:101270000E94410D80918C0190918D010196909377
:101280008D0180938C0108C080918C0190918D011B
:1012900008171907F9F6D7CFDF91CF911F910F915A
:1012A00008952F923F924F925F926F927F928F920A
:1012B0009F92AF92BF92CF92DF92EF92FF920F93E5
:1012C0001F93DF93CF9300D000D00F92CDB7DEB73E
:1012D00089839A832B014032510561F4EDE7F0E0F8
:1012E000E4910E2F10E015950795159507951D8330
:1012F0000C8397C06FE770E0FB018491481B510994
:1013000057FD8DC09B012F5F3F4FF901849190E005
:10131000481759070CF083C09EC0FC01E658FF4FE8
:10132000649185589F4FFC018491562F40E090E0D6
:10133000842B952B0C811D81081B190B1D830C839D
:10134000F901249130E02D5F3F4FB4E0220F331FAD
:10135000BA95E1F7280F391FA9014770507080E84E
:1013600090E002C0959587954A95E2F7382EC9011D
:10137000A3E095958795AA95E1F7E1E8F0E0E4917F
:101380005C01AE0EB11C0C811D81200F311FF3E0FA
:1013900035952795FA95E1F720953095A20EB31E65
:1013A000992439C08C010F5F1F4F84589F4FFC0157
:1013B0008490EC80FD8029819A81C22ED92E232D24
:1013C0003201690C711C1EC0822F882131F0C601C8
:1013D000B3012B830E9412092B81269569F4F80131
:1013E000E458FF4F0F5F1F4F8490882021F4F9E0ED
:1013F000EF16F10464F020E80894E108F10808947D
:10140000C11CD11C8C818E194C818417E8F2C80153
:101410008A0D9B1D9394921408F4C4CF02C01D82C0
:101420001C828C819D810F900F900F900F900F90D8
:10143000CF91DF911F910F91FF90EF90DF90CF90B0
:10144000BF90AF909F908F907F906F905F904F90E4
:101450003F902F900895CA010396880F991FFC01B1
:10146000E458FF4F0491FC01E358FF4FE491B02F83
:10147000A0E00E2F10E00A2B1B2B1D830C83625063
:101480007040FB0124904115510509F046CF80E0E2
:1014900090E056CF8F929F92AF92BF92CF92DF9201
:1014A000EF92FF920F931F93DF93CF9300D0CDB7AE
:1014B000DEB75B018A01690189839A830E9405096D
:1014C00089819A81E82EF92E8824992410C0F70189
:1014D00041917F01552747FD5095C801B6010E94F3
:1014E00051090196080F191F0894811C911C8A1438
:1014F0009B046CF30F900F90CF91DF911F910F9190
:10150000FF90EF90DF90CF90BF90AF909F908F9023
:101510000895CF93DF93FB019A01EC01099000201D
:10152000E9F7BE0161507040681B790BAF010E9462
:101530004A0ADF91CF910895262F372FF901282FDE
:10154000392FD90108C02D9130E0992787FD90955A
:101550002817390729F481918823A9F781E0089594
:1015600080E00895EF92FF920F931F93DF93CF9344
:101570000F92CDB7DEB77B01982F91509E3F98F028
:10158000882319F082E090E002C080E090E08E0DA8
:101590009F1DFC01808191810E94610C88E090E098
:1015A0000E94410D1DC0082F20E0112707FD109556
:1015B000F801EE27FF0FEE1FFF27EE0FFF1FEE0DC6
:1015C000FF1D8081918129830E94610C81E090E060
:1015D0000E94410D29812F5F283011F0000FE5CFC7
:1015E0000F90CF91DF911F910F91FF90EF90089591
:1015F000CF92DF92EF92FF920F931F93CF93DF93DF
:101600008C017B01EA01690148E050E028E030E00C
:101610000E94290CC801B7010E94560C00E010E09E
:101620008991B6010E94B20A0F5F1F4F0830110561
:10163000B9F7DF91CF911F910F91FF90EF90DF905D
:10164000CF900895089585B7806885BF85B7806875
:1016500085BF8FE781B98FEF87B9089520E030E02B
:1016600008C0E7EBFBE03197F1F700C000002F5F07
:101670003F4F28173907A8F30895149888B913988D
:10168000139A149A089588B91398139A0895CF93CA
:10169000C82F892F0E94430B8C2F0E94430BCF91A0
:1016A0000895EF92FF920F931F93DF93CF930F92C2
:1016B000CDB7DEB7162F042F59830E943D0B5981F9
:1016C000202F352F790105C0F70181917F010E94FC
:1016D000430B8E2D801B8117B8F30F90CF91DF91B4
:1016E0001F910F91FF90EF9008950F931F93CF9349
:1016F000DF930E94230B129884E690E00E942E0B49
:10170000129A84E690E00E942E0B149A139A159A6E
:1017100010981198169A88E20E943D0B81E10E9470
:101720003D0B8CE390E00E942E0B8BEC61E040E0DF
:1017300051E00E94510B80EC62E042E051E00E94D7
:10174000510B81EC61E045E051E00E94510B85ECCA
:1017500062E047E051E00E94510B86E361E04AE01D
:1017600051E00E94510B80EB61E04CE051E00E949F
:10177000510B81EB62E04EE051E00E94510B86EB91
:1017800064E041E151E00E94510B87EC61E046E1E9
:1017900051E00E94510B86EF63E048E151E00E9466
:1017A000510B82EF61E04CE151E00E94510B86E267
:1017B00061E040E051E00E94510B8AE361E04EE1BC
:1017C00051E00E94510B80EE6FE040E251E00E9438
:1017D000510B81EE6FE040E351E00E94510B8AE231
:1017E00064E040E451E00E94510B8BE264E045E488
:1017F00051E00E94510B84E30E943D0B84EB61E0B9
:101800004CE151E00E94510B87EB61E04AE451E06A
:101810000E94510B8CE20E943D0BC0EFD0E009C04A
:1018200080E090E00E94470B01501040C9F72197DB
:1018300019F000E411E0F4CF89E20E943D0B82E34D
:1018400090E00E942E0B119ADF91CF911F910F9182
:101850000895CF92DF92EF92FF920F931F93CF9351
:10186000DF938C01EB016A0179018AE20E943D0B52
:10187000C8010E94470BC80101978C0D9D1D0E9455
:10188000470B8BE20E943D0BCE010E94470BCE011D
:1018900001978E0D9F1D0E94470BDF91CF911F91E5
:1018A0000F91FF90EF90DF90CF9008958CE20E940F
:1018B0003D0B0895089580EF90E0089580E491E055
:1018C00008959093910180939001089580E090E0B5
:1018D00060E070E040EF50E020E431E00E94290C2D
:1018E0000895FB012FEF27B942B1542F577F282FBE
:1018F0002370B9F0322FDB016C9168B952B942B94B
:1019000011966C91119768B952B942B9129631503B
:1019100099F7215030E02F5F3F4F220F331FE20F26
:10192000F31F9595879595958795009731F122B18D
:10193000322F377F408148B932B922B9418148B945
:1019400032B922B9428148B932B922B9438148B982
:1019500032B922B9448148B932B922B9458148B96E
:1019600032B922B9468148B932B922B9478148B95A
:1019700032B922B938960197E9F608951F93CF93AB
:10198000DF93C2B11C2F177F2AC08F3F910514F43B
:10199000282F01C02FEFFB01D08130E001C0DA2FEA
:1019A000ED2FF0E0EE0FFF1FE40FF51FA081A8B9A7
:1019B00012B9C2B9A181A8B912B9C2B93F5FDB019E
:1019C000A30FB11DAC91DA1719F4321778F302C0E6
:1019D000321728F330E0821B930B620F731F0097BE
:1019E000A1F6DF91CF911F9108952FEF27B9282FEE
:1019F0002770222341F068B91398139A48B91398B5
:101A0000139A2150F6CFB3E096958795BA95E1F7F2
:101A1000009799F122B168B91398139A48B91398AD
:101A2000139A68B91398139A48B91398139A68B916
:101A30001398139A48B91398139A68B91398139A7C
:101A400048B91398139A68B91398139A48B9139818
:101A5000139A68B91398139A48B91398139A68B9E6
:101A60001398139A48B91398139A68B91398139A4C
:101A700048B91398139A019771F608950E94F50CCE
:101A8000089540919001609191010E94F50C089594
:101A900070939101609390010E94410D0895089503
:101AA00080E480937C0087E880937A000895FB01AE
:101AB00090917C00987F90937C0090917C0087703F
:101AC000892B80937C0080917A00806880937A00D3
:101AD00080917A00806480937A0080917A0084FFFC
:101AE000FCCF50E015C080917A00806480937A002A
:101AF00080917A0084FFFCCF8091780090917900EA
:101B0000392F20E0B901680F711D619371935F5FF8
:101B1000541748F380917A008F7780937A00089564
:101B20002F923F924F925F926F927F928F929F92ED
:101B3000AF92BF92CF92DF92EF92FF920F931F93DB
:101B40001B012C0137014801C601B501621A730A55
:101B5000840A950A8401730115950795F794E79413
:101B6000221A330A440A550AA20191010E943F1A1F
:101B7000E60EF71E081F191FC801B701A401930143
:101B80000E945E1AC9011F910F91FF90EF90DF90A4
:101B9000CF90BF90AF909F908F907F906F905F900D
:101BA0004F903F902F900895AF92BF92CF92DF92C7
:101BB000EF92FF920F931F93CF93DF938C017A01E3
:101BC00001C0BE01FB01EE0DFF1DEE7FE00FF11F16
:101BD000C080D180A701EB0125C02196D9018D914C
:101BE0009C9111972E5F3F4F8C159D05B4F3FA0120
:101BF000EE0FFF1FE00FF11F02C0415050405F0188
:101C0000208131813297C216D306BCF34C175D0791
:101C10004CF011963C932E93F5019183808321968D
:101C2000415050404C175D0734F09E01220F331F86
:101C3000200F311FD3CF641775071CF4C8010E9411
:101C4000D40DCE15DF050CF4BCCFDF91CF911F91E1
:101C50000F91FF90EF90DF90CF90BF90AF900895DD
:101C6000CF93DF93EC0160E070E047E050E00E942A
:101C7000D40D2C813D8188859985280F391F8E814F
:101C80009F81280F391F8A859B85280F391FC9011D
:101C9000DF91CF910895CF93C82F8A3019F48DE04A
:101CA0000E944B0E8091C00085FFFCCFC093C60000
:101CB0002C2F332727FD30958C2F932FCF9108950C
:101CC0008091C00087FFFCCF8091C60090E008950E
:101CD000DC0102C0645E7F4F77FDFCCF02C06C5117
:101CE00070406C317105DCF78CE190E0489FF001A9
:101CF000499FF00D589FF00D1124E60FF71FE75391
:101D0000F94FE491EE23F9F0E730E9F0EE30D9F045
:101D1000EB31B1F51F968C911F97843089F119969C
:101D20009C91199718968C9118978B50873020F4B6
:101D3000892F8F50833038F01C968D919C911D9780
:101D400084309105E9F41A96EC911A97F0E0E61BBD
:101D5000F70B1B968C911B9790E0841B950BEE9FC5
:101D60009001EF9F300DFE9F300D1124889FA00140
:101D7000899F500D989F500D1124240F351F02C0CC
:101D80002FEF3FE7C9010895FB0123E0F595E795A3
:101D90002A95E1F7E80FF91F6770707080E890E00E
:101DA00002C0959587956A95E2F72081282B2083BC
:101DB00008951092C5008DE48093C40088E180935B
:101DC000C10086E08093C2008EE791E090931A03F1
:101DD0008093190390931C0380931B0380E791E089
:101DE00090931803809317030895DC01CB010196AB
:101DF000FB0164911F966C931F979C012F5F3F4FCF
:101E0000FC01449118964C931897C9010196F90169
:101E1000249119962C931997FC0134911E963C93AA
:101E20001E973196E4915196EC935197842F90E050
:101E300053E0880F991F5A95E1F7049715969C93E4
:101E40008E93149711969C938E9330E043E0220F6B
:101E5000331F4A95E1F717963C932E9316971396E6
:101E60003C932E9312971D961C921E921C9750968F
:101E70001C9250970895DC0181E055968C935597FC
:101E80001F969C911F9753969C9353975296EC9153
:101E90005297F0E051968C915197943059F173E03C
:101EA000F595E7957A95E1F7E170880F8E0F5496D6
:101EB0008C9354971C968D919C911D97833091051E
:101EC00059F08430910589F08230910589F5549656
:101ED000EC93549785E00AC085E053968C93539712
:101EE000465F54964C935497089586E053968C938E
:101EF00053970895F595E795E370833029F4F0E062
:101F0000E954FF4EE49110C0F0E0813021F4E55433
:101F1000FF4EE49109C0E154FF4EE491843021F476
:101F20008FEF55968C935597E25F5496EC935497A8
:101F300008957F928F929F92AF92BF92CF92DF923D
:101F4000EF92FF920F931F93CF93DF93DC0104E096
:101F500010E08D919C911197F801E81BF90BE60FA9
:101F6000F71FCF0107968731910508F0A2C012969E
:101F70008D919C911397081B190B040F151FC80115
:101F800007968731910508F094C0B801685F7F4FCC
:101F90006131710514F060E170E017FF09C083E062
:101FA000000F111F8A95E1F7201B310B00E010E0B4
:101FB000601B710BD0E1FD2EFE1A4F2D493010F041
:101FC000C8E0FC2EF7FF05C0EE2EE194E0E0F0E063
:101FD00001C0EE245596CC915597C7FF06C08FE0FF
:101FE00090E0AC01401B510B8A0154968C915497A0
:101FF00090E056E0880F991F5A95E1F78F5F944F54
:10200000000F111F000F111F800F911FCC0FCC0F5D
:10201000AF015595479555954795840F951FE370EA
:10202000F07053964C91539750E0440F551F440F56
:10203000551F465A5F4E5F01AA0CBB1CF4E0DF2E11
:10204000DE1ADD27C7FDD09531C0DC011196FC01F9
:102050000491E02FF0E00A2C02C0F595E7950A9470
:10206000E2F78E2E9D2CCE2CE82DE37061F08A01D4
:102070000E0F111DF8017490772029F089010C0DC5
:10208000111DF80170829A9419F08694869405C007
:10209000FD0111968490E4E09E2EC394CF1420F3AA
:1020A000285F3F4F8C0F9D1F615070406115710577
:1020B00061F6DF91CF911F910F91FF90EF90DF902C
:1020C000CF90BF90AF909F908F907F9008951F9377
:1020D000CF93DF93A62FB0E0FD01F595E795E80FCC
:1020E000F91FE459FE4F6081662331F480E4D90181
:1020F0001D928A95E9F737C06150660F660F862FEB
:1021000090E04170440F51E0A0FD50E0450F840F76
:10211000911DF4E0880F991FFA95E1F78F57954FBD
:1021200070E06A587F4E40E050E0FC01E40FF51F7C
:10213000A49114E01150B0E0FD01E370F070E60FDF
:10214000F71FE491E901C10FD11DE883B595A7956B
:10215000B595A795112371F72C5F3F4F4F5F5F4FE8
:102160004031510511F7DF91CF911F910895BF9232
:10217000CF92DF92EF92FF920F931F93CF93DF9353
:10218000FC013497CB0104978B010D5E1F4FA3E038
:1021900015950795AA95E1F773E0959587957A953A
:1021A000E1F797FF02C080E090E00532110514F0DE
:1021B00004E210E09C01220F331F220F331F240F73
:1021C000351FDF01579653E0B595A7955A95E1F76E
:1021D000BF0143E0759567954A95E1F777FF02C027
:1021E00060E070E0AD31B1050CF1ACE1B0E01EC0D3
:1021F000FA01D3E0F595E795DA95E1F7E20FF31FE1
:10220000EA01C770D07067010C2E02C0D594C79444
:102210000A94E2F7D080DC28D0824F5F5F4F4A17E4
:102220005B0734F32C5F3F4F019603C0C0E8EC2EF0
:10223000F12C8017910714F4AB01F1CFDF91CF910E
:102240001F910F91FF90EF90DF90CF90BF90089576
:10225000CF93DF93EC01C158DE4FE881E830E8F41A
:10226000DC01A058BE4F2D913C911197A90141501E
:10227000504011965C934E932115310571F42E2F29
:102280002F5F2883F0E0E156FF4EE4912CE3E29FBC
:10229000F00111241196FC93EE93FC01E458FE4FDB
:1022A000208131812115310521F1215030403183C8
:1022B000208321153105E9F4DC0144E081E090E060
:1022C0001C962D913C911D972230310571F41D967D
:1022D0009C938E931C975196EC915197F0E0E656A3
:1022E000FF4EE4915196EC935197415056964423FA
:1022F00039F7DF91CF910895AF92BF92CF92DF92DD
:10230000EF92FF920F931F93DF93CF93CDB7DEB77A
:1023100028970FB6F894DEBF0FBECDBF5B018A01D0
:10232000DA011896EC901897FF241996CC90DD24CA
:10233000A60141505040C801B7010E94680E9A831F
:102340008983B70161507040C801A6010E94680EE0
:102350009C838B83A6014F5F5F4FC801B7010E942A
:10236000680E9E838D83B7016F5F7F4FC801A60102
:102370000E94680E98878F83E4E0F0E0EA19FB0979
:10238000EE0FFF1FCE010196E80FF91F208131816A
:10239000F501E656FF4EE49144E050E0E41749F0C1
:1023A000DC016D917C9111976217730714F45A0147
:1023B0009B014150504002964115510579F78A2DF5
:1023C00028960FB6F894DEBF0FBECDBFCF91DF9138
:1023D0001F910F91FF90EF90DF90CF90BF90AF9043
:1023E00008950F931F93CF93DF93C62FD0E0FC0186
:1023F000EC0FFD1FEC59FE4F20812417A1F0408304
:102400008C010D571E4FBE01605E7F4FF801808129
:1024100091810E94C40EBE01665D7F4FF8018081EC
:1024200091810E94C40EDF91CF911F910F91089569
:10243000DF92EF92FF920F931F93DF93CF93CDB76D
:10244000DEB728970FB6F894DEBF0FBECDBF7C0174
:10245000882777FD8095982FF701E05AFE4F20815D
:10246000318142815381620F731F841F951F6083E6
:102470007183828393832DB73EB7285030400FB6C7
:10248000F8943EBF0FBE2DBFEDB7FEB731968E015B
:102490000F5F1F4FADB7BEB712961C930E931197E7
:1024A0002CE431E0338322836483758386839783AE
:1024B0000E94A11AF80101900020E9F7602F6E1B1D
:1024C000685FEDB7FEB738960FB6F894FEBF0FBE43
:1024D000EDBF09C0D62ED394D8014D918D01C7010F
:1024E0000E94F1116D2D6730A8F328960FB6F8946D
:1024F000DEBF0FBECDBFCF91DF911F910F91FF9037
:10250000EF90DF90089570E0E42FF0E033979B01A7
:1025100053E0359527955A95E1F7EE0FFF1FEE0F23
:10252000FF1FE80FF91FE20FF31FE259FF4F208151
:1025300030E06770707080E890E002C095958795F4
:102540006A95E2F72823392381E02115310509F442
:1025500080E008956F927F928F929F92AF92BF9288
:10256000CF92DF92EF92FF920F931F93DF93CF935F
:10257000CDB7DEB7C154D0400FB6F894DEBF0FBE62
:10258000CDBF6C018B017A01622E9E012F5F3F4F00
:102590004232510524F0C6010E94671080C08CE1D0
:1025A00090E0489FF001499FF00D589FF00D1124D5
:1025B000E60FF71FE753F94F549180E4F9011192A8
:1025C0008A95E9F7F4E1EF16F10471F46B307105C7
:1025D0002CF16131710514F5F601E25AFE4F80814C
:1025E0009181009791F50DC081E0E816F104B1F4F6
:1025F0006730710544F4F601E60FF71FEC59FE4F02
:1026000050816BE025C0CB010A9787309105C8F750
:10261000F601E60FF71FE65AFE4FF2CF573011F0E2
:102620005E3079F4C601602F4E2D22965FAF22975F
:102630000E94831222965FAD2297882381F16EE07B
:1026400001C06BE05B3121F402C050E0DACF6EE0F4
:10265000852F90E0A3E0880F991FAA95E1F7875393
:102660009C4F503308F06FE0AE01475C5F4F9E0116
:102670002F5F3F4FFC010196E49170E008C0E7FF37
:1026800004C0D901A70FB11D6C93EE0F7F5FEE233D
:10269000B1F72417350719F0285F3F4FEBCF5801EA
:1026A000F3E0AA0CBB1CFA95E1F74701E3E0880CC4
:1026B000991CEA95E1F76620E1F000E010E076E190
:1026C000672E712C7E010894E11CF11C069DC0014F
:1026D000079D900D169D900D11248C0D9D1DB5012B
:1026E000A40197010E94990F0F5F1F4F053011053C
:1026F00069F768E0E62EF12CEA0CFB1C8401005F10
:102700001F4FC701B80148E050E028E030E00E94C8
:10271000290CC701B8010E94560C80E490E0BE016C
:102720006F5F7F4F40E551E00E94BE0CCF5BDF4FF3
:102730000FB6F894DEBF0FBECDBFCF91DF911F91D2
:102740000F91FF90EF90DF90CF90BF90AF909F9050
:102750008F907F906F900895EF92FF920F931F9349
:10276000CF93DF937C0100E010E00FC0C701BE01F2
:10277000A80120E00E94AA122196CC31D105B1F720
:102780000F5F1F4F0432110519F0C0E0D0E0EECF0B
:10279000DF91CF911F910F91FF90EF9008956F926D
:1027A0007F928F929F92AF92BF92CF92DF92EF92E1
:1027B000FF920F931F93DF93CF930F92CDB7DEB7A6
:1027C0008C01FC01ED57FE4FC080D1805C0125E0FB
:1027D000E22EF5016681778184819581A6010E94B0
:1027E000B710F5016281738180819181A6010E94F9
:1027F000B710EA9486E190E0A80EB91EEE2049F7E2
:102800006624772496E1E92EF12C8EE5A82E81E04E
:10281000B82EA00EB11EBEE78B2EB1E09B2E800E0F
:10282000911E6E9CC0016F9C900D7E9C900D11249A
:10283000F50160817181F40140814150800F911F49
:102840000E943B0F0894611C711CF5E06F16710427
:1028500041F7EC2CFD2C8824992422C0F501D1905D
:102860005F01C32E0DC0D7FE09C0C8016C2D70E0FA
:10287000A40121E039830E94AA123981DD0CC3949E
:10288000DD2089F7385F303249F784E090E0E80EC8
:10289000F91E0894811C911C94E28916910419F088
:1028A000570130E0DBCF0F90CF91DF911F910F9157
:1028B000FF90EF90DF90CF90BF90AF909F908F9060
:1028C0007F906F9008952F923F924F925F926F92F8
:1028D0007F928F929F92AF92BF92CF92DF92EF92B0
:1028E000FF920F931F93DF93CF9300D000D000D0BF
:1028F000CDB7DEB79E838D83FC01E05AFF4F9080F9
:10290000FC01EF59FF4F8080E92CFF24A82CBB2449
:10291000DC0120E030E00FEF1FE7E0E0F0E0CC2446
:10292000DD2486E1682E712C18964C91189750E0A2
:102930004E195F0919966C91199770E06A197B0915
:10294000669FC001679F900D769F900D1124449F54
:10295000B001459F700D549F700D1124860F971F75
:1029600080179107B4F4269D6001279DD00C369DF9
:10297000D00C11244D815E81C40ED51E1C964D9144
:102980005C911D974230510511F08C0102C08C0101
:10299000F6012F5F3F4F56962430310529F63097C8
:1029A00041F08185AD81BE81AE59BF4F90859C932A
:1029B000E2C000311105B4F4880CD60119968C914F
:1029C0001997881AED81FE81EE59FF4F990C1896E0
:1029D0008C911897981A9082ED81FE81ED59FF4FE6
:1029E0008082CEC08D819E8161E046E00E9483128C
:1029F000882331F0ED81FE81EE59FF4F81E00DC05B
:102A00008D819E816AE146E00E948312882361F0F5
:102A1000ED81FE81EE59FF4F8AE18083ED81FE81D9
:102A2000ED59FF4F86E0ABC08D819E8161E04AE1A8
:102A30000E948312882361F0ED81FE81EE59FF4FE1
:102A400081E08083ED81FE81ED59FF4F8AE197C0DF
:102A50008D819E816AE14AE10E948312882309F4F4
:102A600044C0ED81FE81EE59FF4F8AE1808383C02F
:102A7000902E93948D819E81692D482D0E94831202
:102A8000882331F1F201408150E0C8010196481BD2
:102A9000590BD1012C9130E026193709449FC00110
:102AA000459F900D549F900D1124229FA001239FBC
:102AB000500D329F500D1124840F951F8A159B05D0
:102AC0003CF4E981FA819082AB81BC818C925C01FB
:102AD0000F5F1F4F0931110559F60894E11CF11CD5
:102AE000BCE1EB16F104E9F427C0EE24FF247FEFEC
:102AF000A72E7FE7B72E60E6462E512CED81FE8192
:102B00004E0E5F1E51E6252E312C2E0E3F1EEE5925
:102B1000FF4FFA83E9834D815E814D595F4F5C839E
:102B20004B8344E0842E8E0C00E010E034E0632EF2
:102B3000712C6E0C7F1C9CCF5FEFA5165FE7B5066E
:102B4000F9F4ED81FE81EF59FF4F8081880FD601A6
:102B500019969C91891BED81FE81EE59FF4FAD8145
:102B6000BE81A05ABF4F9C91990FD60118962C9107
:102B70001897921B9083ED81FE81ED59FF4F808362
:102B800026960FB6F894DEBF0FBECDBFCF91DF9172
:102B90001F910F91FF90EF90DF90CF90BF90AF907B
:102BA0009F908F907F906F905F904F903F902F906D
:102BB00008952F923F924F925F926F927F928F92E1
:102BC0009F92AF92BF92CF92DF92EF92FF920F93BC
:102BD0001F93CF93DF93EC01FC01E25AFE4F8081FB
:102BE0009181009709F4E5C0CE010E946314FE01B3
:102BF000E158FE4F808190E081709070DE018E017F
:102C0000085A1F4F70E6A72EB12CAC0EBD1E61E610
:102C1000262E312C2C0E3D1E9E0127593F4FEDEAEA
:102C2000F0E144903196C4905EE0D52E4CE0742ED5
:102C3000F1E08F2E912CE1E16E2E70E5572E1C965F
:102C40004D915C911D9744305105C9F418964C91F3
:102C500018974E3069F419964C911997413141F407
:102C60001D961C921E921C971E965C921E9794C0F5
:102C70001A96DC921A971B966C921B978DC01E9623
:102C80004C911E97442359F041501E964C931E9729
:102C9000442309F081C01D969C928E921C97189631
:102CA0004C91189719966C911997542F5B50573087
:102CB00028F4562F5F50533008F474C0009739F44D
:102CC0001C96ED91FC911D97E230F10591F41F9651
:102CD000EC911F97F0E0EE0FFF1FE955FF4E449176
:102CE0003196E4911A964C931A971B96EC931B9786
:102CF00053C0F501E080F101F0801F965C911F97B1
:102D0000523099F0533039F1513009F03FC0F90198
:102D10004081E42FF0E0EE0FFF1FE355FF4E44919A
:102D2000E40E3196E491FE0E31C0F9014081E42FAA
:102D3000F0E0EE0FFF1FE355FF4E44914695E40E81
:102D40003196E491E695FE0EEE0C4885E41AFF0CF0
:102D50004985F41A1BC050E04E19510970E06F19F3
:102D60007109669FF001679FF00D769FF00D1124A9
:102D7000449FB001459F700D549F700D1124E60FC4
:102D8000F71FE034F10514F4FC2CE42C1A96EC92B5
:102D90001A971B96FC921B975696A017B10709F03D
:102DA0004ECF07C01A96DC921A971B967C921B97FF
:102DB000F3CFDF91CF911F910F91FF90EF90DF90B4
:102DC000CF90BF90AF909F908F907F906F905F90CB
:102DD0004F903F902F9008950F931F93CF93DF93C1
:102DE000EC01062F142F0E948312882309F465C07A
:102DF000602F70E0412F50E0FA013397EE0FFF1F74
:102E0000EE0FFF1FCB01A3E095958795AA95E1F7FB
:102E1000E80FF91FEC0FFD1FE259FF4F9B012770D0
:102E2000307080E890E002C0959587952A95E2F78A
:102E300080959081982390838CE190E0489FF001E9
:102E4000499FF00D589FF00D1124E60FF71FE7532F
:102E5000F94FE491EE3061F5FE01E458FE4F88E54C
:102E600092E091838083FE01E258FE4F1082DE01E2
:102E700044E082E090E01C962D913C911D9721301A
:102E8000310571F41D969C938E931C975196EC918D
:102E90005197F0E0E656FF4EE4915196EC9351972E
:102EA00041505696442339F7CE0162E370E003C0E7
:102EB000CE016AE070E00E941812DF91CF911F915D
:102EC0000F9108952F923F924F925F926F927F924F
:102ED0008F929F92AF92BF92CF92DF92EF92FF922A
:102EE0000F931F93DF93CF93CDB7DEB728970FB61D
:102EF000F894DEBF0FBECDBF8C010E942811C8011F
:102F00000E94D915F801E658FE4F80819181009703
:102F100041F1019791838083F801E25AFE4F0097B7
:102F200009F047C080819181009721F0823091059E
:102F3000C1F42BC081E090E091838083D801AD572C
:102F4000BE4FED91FC911197EF5AFF4F80818F6139
:102F50008083ED91FC911197EE5AFF4F808180683C
:102F6000808378011E830D8366247724FEE54F2E2F
:102F7000F1E05F2E400E511EE6E12E2E312CC801ED
:102F800084589E4F9A83898319C081E090E0918391
:102F90008083F80144E084E090E024853585233087
:102FA000310511F495878487415076964423A9F71B
:102FB000D8CF808191810097A1F61DC1F201808157
:102FC00091818230910541F4ED81FE818485958562
:102FD0008430910509F0A5C0ED81FE8120898785A7
:102FE000843041F4E981FA81808191810097A1F0D8
:102FF0008AE519C0ED81FE81848595858230910531
:1030000089F08430910551F08185813149F49085B2
:1030100096509F3038F404C080E505C084E603C0B4
:103020008BE401C088E2820FED81FE81808B8436C3
:1030300008F477C08456808BC080D180D582C4824A
:10304000A280B380B782A68282898F5F828B96012D
:103050004501C601877090700097D1F4C501877053
:1030600090700097A9F46189629CA001639C500D47
:10307000729C500D1124400F511FC80170E0CF8287
:1030800038870E947C11ED81FE81818B38852F81EC
:10309000ED81FE8181898230B9F0833018F481306E
:1030A000D1F409C0833019F08430A9F408C0960126
:1030B0002150304010C096012F5F3F4F0CC045019A
:1030C00008948108910807C045010894811C911C4F
:1030D00002C020523F4F37FDFCCF02C0205E30407F
:1030E000203E3105DCF7ED81FE8131832083938220
:1030F00082822C5F3F4F73E0359527957A95E1F7F3
:103100002087A4014C5F5F4F63E0559547956A9512
:10311000E1F741878785843021F4C801622F0E943E
:10312000EC160894611C711C8D819E8146969E83CD
:103130008D8395E06916710409F040CF58E5A52EFE
:10314000B12CA00EB11E40E6842E912C800E911E53
:1031500031E6632E712C600E711E23E0422E512C3D
:10316000A80142585E4F9EE5292E91E0392E200E8F
:10317000311EF801E658FE4FFA83E98328E730E074
:1031800084E6C82ED12CF7019085F4018081981730
:1031900059F5F7019185F3018081981729F5F70119
:1031A0008485958582309105F9F455864486FA0127
:1031B00060816F5F6083F10191838083E981FA818F
:1031C00031832083C60102C0880F991F6A95E2F7F8
:1031D000BC01C8012F8338874B835C830E9418127F
:1031E0005C814B8138852F81E6E1F0E0EE0EFF1E19
:1031F000EA14FB0441F628960FB6F894DEBF0FBE22
:10320000CDBFCF91DF911F910F91FF90EF90DF9095
:10321000CF90BF90AF909F908F907F906F905F9076
:103220004F903F902F900895CF92DF92EF92FF92B0
:103230000F931F93DF93CF9300D0CDB7DEB76C0110
:10324000FC01EE57FE4F81E08083F601E25AFE4F0B
:1032500011821082F601E658FE4F84EB90E09183D4
:103260008083F601E258FE4F1082F601E458FE4FCB
:103270001182108220E030E000E010E086E1E82ECC
:10328000F12C0E9DC0010F9D900D1E9D900D1124DF
:10329000B9016F5B7F4E8C0D9D1D29833A830E947F
:1032A000F50E0F5F1F4F29813A812B5F3F4F05308D
:1032B000110539F7F601E158FE4F1082F601E0588A
:1032C000FE4F81E090E091838083F601E05AFE4F4B
:1032D0001082118212821382C6018C599E4FFC010A
:1032E00088E0DF011D928A95E9F7F601E659FE4F65
:1032F00080E38083F601E759FE4F8083F601E459AD
:10330000FE4F8EE0DF011D928A95E9F7D601A259A2
:10331000BE4F81E08C93D601A359BE4F8C9380831E
:10332000960122593F4F80EFD9011D928A95E9F706
:1033300044E550E060E870E02AC0A82FFC01E40FEB
:10334000F51FE753F94FE491E73011F0EE3099F4AF
:10335000FC01B3E0F595E795BA95E1F7E20FF31FAD
:10336000A7708B0102C015950795AA95E2F7D801C1
:1033700000810A2B008301968C319105F1F6445EA1
:103380005F4F13E04C39510729F02C5F3F4F80E02D
:1033900090E0D3CF80E090E060E070E040EF50E05C
:1033A00020E431E000E010E00E949008C6010E9495
:1033B000AC130F900F90CF91DF911F910F91FF9061
:1033C000EF90DF90CF9008950F931F93DF93CF93EB
:1033D000CDB7DEB7C059D0400FB6F894DEBF0FBEF0
:1033E000CDBF8C01FC01EE57FE4F8081882319F080
:1033F0006038710519F4C8010E941419FE01319654
:1034000080E9DF011D928A95E9F7D801AD57BE4FDB
:10341000ED93FC93C8010E946217C8010E94CF136C
:10342000C057DF4F0FB6F894DEBF0FBECDBFCF91B0
:10343000DF911F910F910895CF93BC01C5E002C0A9
:1034400060E070E082E991E00E94E419C150C1F7A8
:10345000CF9108950E94750B80E090E00E941C1AA5
:10346000FBCF10921403E0E5F1E08081918190831D
:103470008183329681E0E037F807B9F70895629FBB
:10348000D001739FF001829FE00DF11D649FE00D5C
:10349000F11D929FF00D839FF00D749FF00D659FBD
:1034A000F00D9927729FB00DE11DF91F639FB00DBC
:1034B000E11DF91FBD01CF011124089597FB092ECD
:1034C00005260ED057FD04D014D00AD0001C38F4C5
:1034D00050954095309521953F4F4F4F5F4F089540
:1034E000F6F790958095709561957F4F8F4F9F4F20
:1034F0000895A1E21A2EAA1BBB1BFD010DC0AA1F35
:10350000BB1FEE1FFF1FA217B307E407F50720F04C
:10351000A21BB30BE40BF50B661F771F881F991FC7
:103520001A9469F760957095809590959B01AC0110
:10353000BD01CF010895EE0FFF1F0590F491E02D1E
:103540000994AEE0B0E0E7EAFAE10C94591D0D8968
:103550001E8986E08C831A8309838FEF9FE79E8301
:103560008D839E01275E3F4FCE0101966F89788D36
:10357000A9010E94C41AEF81F885E00FF11F1082A3
:103580002E96E4E00C94751DACE0B0E0EAECFAE1B4
:103590000C944B1D6C011B018A01FC0117821682E1
:1035A000838181FFD1C12E010894411C511CF60179
:1035B0009381F10193FD859193FF81911F018823F0
:1035C00009F4BEC1853239F493FD859193FF819151
:1035D0001F01853229F490E0B6010E94C11CE7CF9B
:1035E000EE24FF2420E02032B0F48B3269F08C32DC
:1035F00028F4803251F0833271F40BC08D3239F0EF
:10360000803349F421602CC02260246029C02860E6
:1036100027C0206125C027FD2CC0382F30533A30F9
:1036200098F426FF08C08E2D880FE82EEE0CEE0CC5
:10363000E80EE30E15C08F2D880FF82EFF0CFF0C3F
:10364000F80EF30E20620CC08E3221F426FD78C1F4
:10365000206406C08C3611F4206802C0883649F414
:10366000F10193FD859193FF81911F01882309F05A
:10367000BACF982F9554933018F09052933028F485
:103680000C5F1F4FFFE3F9830DC0833631F08337A2
:1036900071F0833509F060C022C0F8018081898310
:1036A0000E5F1F4F420171E0A72EB12C16C062E0E1
:1036B000662E712C600E711EF8018080918026FFAD
:1036C00003C06E2D70E002C06FEF7FEFC4012C8746
:1036D0000E94B61C5C0183012C852F7717C052E035
:1036E000652E712C600E711EF8018080918026FF7E
:1036F00003C06E2D70E002C06FEF7FEFC4012C8716
:103700000E94AB1C5C012C852068830123FD20C036
:1037100008C080E290E0B6012C870E94C11CFA9498
:103720002C858F2D90E0A816B90698F311C0F401EE
:1037300027FD859127FF81914F0190E0B6012C87ED
:103740000E94C11C2C85F110FA940894A108B108BC
:10375000A114B10461F7F1C0843611F0893649F53E
:1037600027FF08C0F80160817181828193810C5F1D
:103770001F4F09C0F80160817181882777FD80950E
:10378000982F0E5F1F4F4FE6B42EB22297FF09C04D
:1037900090958095709561957F4F8F4F9F4FF0E882
:1037A000BF2AA2012AE030E00E94ED1C782E741896
:1037B00045C0853731F43FEEB32EB2222AE030E027
:1037C00025C099EFB92EB2228F36C1F0803720F490
:1037D000883509F0B5C00DC0803721F0883709F071
:1037E000AFC002C020E1B22AB4FE0BC084E0B82A08
:1037F00008C0B4FE09C0E6E0BE2A06C028E030E0FA
:1038000005C020E130E002C020E132E0B7FE08C090
:10381000F80160817181828193810C5F1F4F07C025
:10382000F8016081718180E090E00E5F1F4FA2017E
:103830000E94ED1C782E7418FFE7BF22B6FE0BC065
:103840002EEFB2227E1438F4B4FE07C0B2FC05C0DD
:103850008FEEB82202C0A72C01C0AE2C8B2D90E0B9
:10386000B4FE0DC0FE01E70DF11D2081203319F4D7
:10387000E9EEBE2209C0A394B2FE06C004C0867859
:103880009070009709F0A3948B2C9924B3FC14C07A
:10389000B0FE0FC0AF1428F4E72CEF0CEA18AF2CE1
:1038A00008C0E72C06C080E290E0B6010E94C11C6F
:1038B000A394AF14C0F304C0AF1410F4FA1801C0FD
:1038C000FF2484FE0FC080E390E0B6010E94C11C7B
:1038D00082FE1FC081FE03C088E590E010C088E72B
:1038E00090E00DC0C40186789070009791F081FC43
:1038F00002C080E201C08BE2B7FC8DE290E0B6012D
:103900000E94C11C06C080E390E0B6010E94C11C69
:10391000EA947E14C0F37A94F201E70DF11D8081E0
:1039200090E0B6010E94C11C7720A9F706C080E292
:1039300090E0B6010E94C11CFA94FF20C1F737CE77
:10394000F6012681378102C02FEF3FEFC9012C9687
:10395000E2E10C94671DFC0105906150704001107C
:10396000D8F7809590958E0F9F1F0895FC016150A8
:10397000704001900110D8F7809590958E0F9F1F91
:1039800008950F931F93CF93DF938C01EB018B81ED
:1039900081FF1BC082FF0DC02E813F818C819D81E4
:1039A0002817390764F4E881F9810193F983E883E2
:1039B00006C0E885F985802F0995009731F48E813E
:1039C0009F8101969F838E8302C00FEF1FEFC80176
:1039D000DF91CF911F910F910895FA01AA27283006
:1039E00051F1203181F1E8946F936E7F6E5F7F4FCC
:1039F0008F4F9F4FAF4FB1E03ED0B4E03CD0670F48
:103A0000781F891F9A1FA11D680F791F8A1F911D9A
:103A1000A11D6A0F711D811D911DA11D20D009F4EA
:103A200068943F912AE0269F11243019305D31932C
:103A3000DEF6CF010895462F4770405D4193B3E015
:103A40000FD0C9F7F6CF462F4F70405D4A3318F0BC
:103A5000495D31FD4052419302D0A9F7EACFB4E06D
:103A6000A6959795879577956795BA95C9F7009725
:103A70006105710508959B01AC010A2E06945795C6
:103A8000479537952795BA95C9F7620F731F841F1D
:103A9000951FA01D08952F923F924F925F926F92B3
:103AA0007F928F929F92AF92BF92CF92DF92EF92CE
:103AB000FF920F931F93CF93DF93CDB7DEB7CA1B4F
:103AC000DB0B0FB6F894DEBF0FBECDBF09942A887A
:103AD000398848885F846E847D848C849B84AA8422
:103AE000B984C884DF80EE80FD800C811B81AA81AF
:103AF000B981CE0FD11D0FB6F894DEBF0FBECDBF7A
:083B0000ED010895F894FFCFD8
:103B080001002608001000353E0040004A00001B56
:103B1800000A82270000B5000100000000005500DF
:103B28001F1A180A0F064587320A07020705000000
:103B38000025270510093A784D05180D383A1F0059
:103B4800000000EF000000013F000700256C640042
:103B580000001F00BB54DFFD0000E0FFA8FADF559E
:103B68000000FF07000004F9E007A8AADFADFBFE8C
:103B780000000001000000000000600E00000000CE
:0C3B88000002000000004B0E00000000D6
:00000001FF
